{
  "contractName": "TaskManager",
  "abi": [
    {
      "inputs": [],
      "stateMutability": "nonpayable",
      "type": "constructor"
    },
    {
      "anonymous": false,
      "inputs": [
        {
          "indexed": true,
          "internalType": "uint256",
          "name": "id",
          "type": "uint256"
        },
        {
          "indexed": false,
          "internalType": "string",
          "name": "title",
          "type": "string"
        },
        {
          "indexed": false,
          "internalType": "uint256",
          "name": "categoryId",
          "type": "uint256"
        },
        {
          "indexed": false,
          "internalType": "address",
          "name": "owner",
          "type": "address"
        },
        {
          "indexed": false,
          "internalType": "uint256",
          "name": "timestamp",
          "type": "uint256"
        }
      ],
      "name": "TaskCreated",
      "type": "event"
    },
    {
      "anonymous": false,
      "inputs": [
        {
          "indexed": true,
          "internalType": "uint256",
          "name": "id",
          "type": "uint256"
        },
        {
          "indexed": false,
          "internalType": "bool",
          "name": "completed",
          "type": "bool"
        },
        {
          "indexed": false,
          "internalType": "uint256",
          "name": "timestamp",
          "type": "uint256"
        }
      ],
      "name": "TaskToggled",
      "type": "event"
    },
    {
      "inputs": [],
      "name": "taskCount",
      "outputs": [
        {
          "internalType": "uint256",
          "name": "",
          "type": "uint256"
        }
      ],
      "stateMutability": "view",
      "type": "function",
      "constant": true
    },
    {
      "inputs": [
        {
          "internalType": "uint256",
          "name": "",
          "type": "uint256"
        }
      ],
      "name": "tasks",
      "outputs": [
        {
          "internalType": "uint256",
          "name": "id",
          "type": "uint256"
        },
        {
          "internalType": "string",
          "name": "title",
          "type": "string"
        },
        {
          "internalType": "uint256",
          "name": "categoryId",
          "type": "uint256"
        },
        {
          "internalType": "bool",
          "name": "completed",
          "type": "bool"
        },
        {
          "internalType": "uint256",
          "name": "createdAt",
          "type": "uint256"
        },
        {
          "internalType": "uint256",
          "name": "updatedAt",
          "type": "uint256"
        },
        {
          "internalType": "address",
          "name": "owner",
          "type": "address"
        }
      ],
      "stateMutability": "view",
      "type": "function",
      "constant": true
    },
    {
      "inputs": [
        {
          "internalType": "string",
          "name": "_title",
          "type": "string"
        },
        {
          "internalType": "uint256",
          "name": "_categoryId",
          "type": "uint256"
        }
      ],
      "name": "createTask",
      "outputs": [
        {
          "internalType": "uint256",
          "name": "",
          "type": "uint256"
        }
      ],
      "stateMutability": "nonpayable",
      "type": "function"
    },
    {
      "inputs": [
        {
          "internalType": "uint256",
          "name": "_id",
          "type": "uint256"
        },
        {
          "internalType": "bool",
          "name": "_completed",
          "type": "bool"
        }
      ],
      "name": "toggleComplete",
      "outputs": [],
      "stateMutability": "nonpayable",
      "type": "function"
    },
    {
      "inputs": [
        {
          "internalType": "uint256",
          "name": "_id",
          "type": "uint256"
        }
      ],
      "name": "completeTask",
      "outputs": [],
      "stateMutability": "nonpayable",
      "type": "function"
    },
    {
      "inputs": [],
      "name": "getTasks",
      "outputs": [
        {
          "components": [
            {
              "internalType": "uint256",
              "name": "id",
              "type": "uint256"
            },
            {
              "internalType": "string",
              "name": "title",
              "type": "string"
            },
            {
              "internalType": "uint256",
              "name": "categoryId",
              "type": "uint256"
            },
            {
              "internalType": "bool",
              "name": "completed",
              "type": "bool"
            },
            {
              "internalType": "uint256",
              "name": "createdAt",
              "type": "uint256"
            },
            {
              "internalType": "uint256",
              "name": "updatedAt",
              "type": "uint256"
            },
            {
              "internalType": "address",
              "name": "owner",
              "type": "address"
            }
          ],
          "internalType": "struct TaskManager.Task[]",
          "name": "",
          "type": "tuple[]"
        }
      ],
      "stateMutability": "view",
      "type": "function",
      "constant": true
    },
    {
      "inputs": [
        {
          "internalType": "uint256",
          "name": "_id",
          "type": "uint256"
        }
      ],
      "name": "getTask",
      "outputs": [
        {
          "components": [
            {
              "internalType": "uint256",
              "name": "id",
              "type": "uint256"
            },
            {
              "internalType": "string",
              "name": "title",
              "type": "string"
            },
            {
              "internalType": "uint256",
              "name": "categoryId",
              "type": "uint256"
            },
            {
              "internalType": "bool",
              "name": "completed",
              "type": "bool"
            },
            {
              "internalType": "uint256",
              "name": "createdAt",
              "type": "uint256"
            },
            {
              "internalType": "uint256",
              "name": "updatedAt",
              "type": "uint256"
            },
            {
              "internalType": "address",
              "name": "owner",
              "type": "address"
            }
          ],
          "internalType": "struct TaskManager.Task",
          "name": "",
          "type": "tuple"
        }
      ],
      "stateMutability": "view",
      "type": "function",
      "constant": true
    },
    {
      "inputs": [
        {
          "internalType": "uint256",
          "name": "_categoryId",
          "type": "uint256"
        }
      ],
      "name": "getTasksByCategory",
      "outputs": [
        {
          "components": [
            {
              "internalType": "uint256",
              "name": "id",
              "type": "uint256"
            },
            {
              "internalType": "string",
              "name": "title",
              "type": "string"
            },
            {
              "internalType": "uint256",
              "name": "categoryId",
              "type": "uint256"
            },
            {
              "internalType": "bool",
              "name": "completed",
              "type": "bool"
            },
            {
              "internalType": "uint256",
              "name": "createdAt",
              "type": "uint256"
            },
            {
              "internalType": "uint256",
              "name": "updatedAt",
              "type": "uint256"
            },
            {
              "internalType": "address",
              "name": "owner",
              "type": "address"
            }
          ],
          "internalType": "struct TaskManager.Task[]",
          "name": "",
          "type": "tuple[]"
        }
      ],
      "stateMutability": "view",
      "type": "function",
      "constant": true
    },
    {
      "inputs": [],
      "name": "getTaskCount",
      "outputs": [
        {
          "internalType": "uint256",
          "name": "",
          "type": "uint256"
        }
      ],
      "stateMutability": "view",
      "type": "function",
      "constant": true
    }
  ],
  "bytecode": "0x608060405234801561000f575f80fd5b505f600181905550611963806100245f395ff3fe608060405234801561000f575f80fd5b5060043610610091575f3560e01c8063774b315711610064578063774b3157146101435780638d9776721461015f578063b6cb58a514610195578063c17a340e146101b3578063e1e29558146101d157610091565b806304a87e381461009557806304fe2b34146100b35780631d65e77e146100e35780636bf8bf2014610113575b5f80fd5b61009d6101ed565b6040516100aa9190610f5f565b60405180910390f35b6100cd60048036038101906100c891906110e6565b61036e565b6040516100da919061114f565b60405180910390f35b6100fd60048036038101906100f89190611168565b610573565b60405161010a919061122c565b60405180910390f35b61012d60048036038101906101289190611168565b61072e565b60405161013a9190610f5f565b60405180910390f35b61015d60048036038101906101589190611276565b6109b6565b005b61017960048036038101906101749190611168565b610ab5565b60405161018c979695949392919061131a565b60405180910390f35b61019d610bb2565b6040516101aa919061114f565b60405180910390f35b6101bb610bb8565b6040516101c8919061114f565b60405180910390f35b6101eb60048036038101906101e69190611168565b610bc1565b005b60605f805480602002602001604051908101604052809291908181526020015f905b82821015610365578382905f5260205f2090600702016040518060e00160405290815f8201548152602001600182018054610249906113bb565b80601f0160208091040260200160405190810160405280929190818152602001828054610275906113bb565b80156102c05780601f10610297576101008083540402835291602001916102c0565b820191905f5260205f20905b8154815290600101906020018083116102a357829003601f168201915b5050505050815260200160028201548152602001600382015f9054906101000a900460ff161515151581526020016004820154815260200160058201548152602001600682015f9054906101000a900473ffffffffffffffffffffffffffffffffffffffff1673ffffffffffffffffffffffffffffffffffffffff1673ffffffffffffffffffffffffffffffffffffffff16815250508152602001906001019061020f565b50505050905090565b5f808351116103b2576040517f08c379a00000000000000000000000000000000000000000000000000000000081526004016103a990611435565b60405180910390fd5b5f82116103f4576040517f08c379a00000000000000000000000000000000000000000000000000000000081526004016103eb906114c3565b60405180910390fd5b5f4290505f60018054610407919061150e565b90505f6040518060e001604052808381526020018781526020018681526020015f151581526020018481526020018481526020013373ffffffffffffffffffffffffffffffffffffffff1681525090505f81908060018154018082558091505060019003905f5260205f2090600702015f909190919091505f820151815f0155602082015181600101908161049c91906116de565b50604082015181600201556060820151816003015f6101000a81548160ff0219169083151502179055506080820151816004015560a0820151816005015560c0820151816006015f6101000a81548173ffffffffffffffffffffffffffffffffffffffff021916908373ffffffffffffffffffffffffffffffffffffffff160217905550505081600181905550817f976087a487cae26c1134e33f5c4aa8fd894f32d2527b4d1a0c7eb2ee507565a18787338760405161055f94939291906117ad565b60405180910390a281935050505092915050565b61057b610cc1565b5f8211801561058c57506001548211155b6105cb576040517f08c379a00000000000000000000000000000000000000000000000000000000081526004016105c290611841565b60405180910390fd5b5f6001836105d9919061185f565b815481106105ea576105e9611892565b5b905f5260205f2090600702016040518060e00160405290815f820154815260200160018201805461061a906113bb565b80601f0160208091040260200160405190810160405280929190818152602001828054610646906113bb565b80156106915780601f1061066857610100808354040283529160200191610691565b820191905f5260205f20905b81548152906001019060200180831161067457829003601f168201915b5050505050815260200160028201548152602001600382015f9054906101000a900460ff161515151581526020016004820154815260200160058201548152602001600682015f9054906101000a900473ffffffffffffffffffffffffffffffffffffffff1673ffffffffffffffffffffffffffffffffffffffff1673ffffffffffffffffffffffffffffffffffffffff16815250509050919050565b60605f805b5f8054905081101561078a57835f828154811061075357610752611892565b5b905f5260205f2090600702016002015403610777578180610773906118bf565b9250505b8080610782906118bf565b915050610733565b505f8167ffffffffffffffff8111156107a6576107a5610f98565b5b6040519080825280602002602001820160405280156107df57816020015b6107cc610cc1565b8152602001906001900390816107c45790505b5090505f805b5f805490508110156109aa57855f828154811061080557610804611892565b5b905f5260205f2090600702016002015403610997575f818154811061082d5761082c611892565b5b905f5260205f2090600702016040518060e00160405290815f820154815260200160018201805461085d906113bb565b80601f0160208091040260200160405190810160405280929190818152602001828054610889906113bb565b80156108d45780601f106108ab576101008083540402835291602001916108d4565b820191905f5260205f20905b8154815290600101906020018083116108b757829003601f168201915b5050505050815260200160028201548152602001600382015f9054906101000a900460ff161515151581526020016004820154815260200160058201548152602001600682015f9054906101000a900473ffffffffffffffffffffffffffffffffffffffff1673ffffffffffffffffffffffffffffffffffffffff1673ffffffffffffffffffffffffffffffffffffffff168152505083838151811061097d5761097c611892565b5b60200260200101819052508180610993906118bf565b9250505b80806109a2906118bf565b9150506107e5565b50819350505050919050565b5f821180156109c757506001548211155b610a06576040517f08c379a00000000000000000000000000000000000000000000000000000000081526004016109fd90611841565b60405180910390fd5b5f600183610a14919061185f565b9050815f8281548110610a2a57610a29611892565b5b905f5260205f2090600702016003015f6101000a81548160ff021916908315150217905550425f8281548110610a6357610a62611892565b5b905f5260205f20906007020160050181905550827f90c6d3185c863d83e1135d3afdd4c39c1d710c324601c322843b63c2e0fbac488342604051610aa8929190611906565b60405180910390a2505050565b5f8181548110610ac3575f80fd5b905f5260205f2090600702015f91509050805f015490806001018054610ae8906113bb565b80601f0160208091040260200160405190810160405280929190818152602001828054610b14906113bb565b8015610b5f5780601f10610b3657610100808354040283529160200191610b5f565b820191905f5260205f20905b815481529060010190602001808311610b4257829003601f168201915b505050505090806002015490806003015f9054906101000a900460ff1690806004015490806005015490806006015f9054906101000a900473ffffffffffffffffffffffffffffffffffffffff16905087565b60015481565b5f600154905090565b5f81118015610bd257506001548111155b610c11576040517f08c379a0000000000000000000000000000000000000000000000000000000008152600401610c0890611841565b60405180910390fd5b5f600182610c1f919061185f565b905060015f8281548110610c3657610c35611892565b5b905f5260205f2090600702016003015f6101000a81548160ff021916908315150217905550425f8281548110610c6f57610c6e611892565b5b905f5260205f20906007020160050181905550817f90c6d3185c863d83e1135d3afdd4c39c1d710c324601c322843b63c2e0fbac48600142604051610cb5929190611906565b60405180910390a25050565b6040518060e001604052805f8152602001606081526020015f81526020015f151581526020015f81526020015f81526020015f73ffffffffffffffffffffffffffffffffffffffff1681525090565b5f81519050919050565b5f82825260208201905092915050565b5f819050602082019050919050565b5f819050919050565b610d4b81610d39565b82525050565b5f81519050919050565b5f82825260208201905092915050565b5f5b83811015610d88578082015181840152602081019050610d6d565b5f8484015250505050565b5f601f19601f8301169050919050565b5f610dad82610d51565b610db78185610d5b565b9350610dc7818560208601610d6b565b610dd081610d93565b840191505092915050565b5f8115159050919050565b610def81610ddb565b82525050565b5f73ffffffffffffffffffffffffffffffffffffffff82169050919050565b5f610e1e82610df5565b9050919050565b610e2e81610e14565b82525050565b5f60e083015f830151610e495f860182610d42565b5060208301518482036020860152610e618282610da3565b9150506040830151610e766040860182610d42565b506060830151610e896060860182610de6565b506080830151610e9c6080860182610d42565b5060a0830151610eaf60a0860182610d42565b5060c0830151610ec260c0860182610e25565b508091505092915050565b5f610ed88383610e34565b905092915050565b5f602082019050919050565b5f610ef682610d10565b610f008185610d1a565b935083602082028501610f1285610d2a565b805f5b85811015610f4d5784840389528151610f2e8582610ecd565b9450610f3983610ee0565b925060208a01995050600181019050610f15565b50829750879550505050505092915050565b5f6020820190508181035f830152610f778184610eec565b905092915050565b5f604051905090565b5f80fd5b5f80fd5b5f80fd5b5f80fd5b7f4e487b71000000000000000000000000000000000000000000000000000000005f52604160045260245ffd5b610fce82610d93565b810181811067ffffffffffffffff82111715610fed57610fec610f98565b5b80604052505050565b5f610fff610f7f565b905061100b8282610fc5565b919050565b5f67ffffffffffffffff82111561102a57611029610f98565b5b61103382610d93565b9050602081019050919050565b828183375f83830152505050565b5f61106061105b84611010565b610ff6565b90508281526020810184848401111561107c5761107b610f94565b5b611087848285611040565b509392505050565b5f82601f8301126110a3576110a2610f90565b5b81356110b384826020860161104e565b91505092915050565b6110c581610d39565b81146110cf575f80fd5b50565b5f813590506110e0816110bc565b92915050565b5f80604083850312156110fc576110fb610f88565b5b5f83013567ffffffffffffffff81111561111957611118610f8c565b5b6111258582860161108f565b9250506020611136858286016110d2565b9150509250929050565b61114981610d39565b82525050565b5f6020820190506111625f830184611140565b92915050565b5f6020828403121561117d5761117c610f88565b5b5f61118a848285016110d2565b91505092915050565b5f60e083015f8301516111a85f860182610d42565b50602083015184820360208601526111c08282610da3565b91505060408301516111d56040860182610d42565b5060608301516111e86060860182610de6565b5060808301516111fb6080860182610d42565b5060a083015161120e60a0860182610d42565b5060c083015161122160c0860182610e25565b508091505092915050565b5f6020820190508181035f8301526112448184611193565b905092915050565b61125581610ddb565b811461125f575f80fd5b50565b5f813590506112708161124c565b92915050565b5f806040838503121561128c5761128b610f88565b5b5f611299858286016110d2565b92505060206112aa85828601611262565b9150509250929050565b5f82825260208201905092915050565b5f6112ce82610d51565b6112d881856112b4565b93506112e8818560208601610d6b565b6112f181610d93565b840191505092915050565b61130581610ddb565b82525050565b61131481610e14565b82525050565b5f60e08201905061132d5f83018a611140565b818103602083015261133f81896112c4565b905061134e6040830188611140565b61135b60608301876112fc565b6113686080830186611140565b61137560a0830185611140565b61138260c083018461130b565b98975050505050505050565b7f4e487b71000000000000000000000000000000000000000000000000000000005f52602260045260245ffd5b5f60028204905060018216806113d257607f821691505b6020821081036113e5576113e461138e565b5b50919050565b7f5469746c652063616e6e6f7420626520656d70747900000000000000000000005f82015250565b5f61141f6015836112b4565b915061142a826113eb565b602082019050919050565b5f6020820190508181035f83015261144c81611413565b9050919050565b7f43617465676f7279204944206d7573742062652067726561746572207468616e5f8201527f2030000000000000000000000000000000000000000000000000000000000000602082015250565b5f6114ad6022836112b4565b91506114b882611453565b604082019050919050565b5f6020820190508181035f8301526114da816114a1565b9050919050565b7f4e487b71000000000000000000000000000000000000000000000000000000005f52601160045260245ffd5b5f61151882610d39565b915061152383610d39565b925082820190508082111561153b5761153a6114e1565b5b92915050565b5f819050815f5260205f209050919050565b5f6020601f8301049050919050565b5f82821b905092915050565b5f6008830261159d7fffffffffffffffffffffffffffffffffffffffffffffffffffffffffffffffff82611562565b6115a78683611562565b95508019841693508086168417925050509392505050565b5f819050919050565b5f6115e26115dd6115d884610d39565b6115bf565b610d39565b9050919050565b5f819050919050565b6115fb836115c8565b61160f611607826115e9565b84845461156e565b825550505050565b5f90565b611623611617565b61162e8184846115f2565b505050565b5b81811015611651576116465f8261161b565b600181019050611634565b5050565b601f8211156116965761166781611541565b61167084611553565b8101602085101561167f578190505b61169361168b85611553565b830182611633565b50505b505050565b5f82821c905092915050565b5f6116b65f198460080261169b565b1980831691505092915050565b5f6116ce83836116a7565b9150826002028217905092915050565b6116e782610d51565b67ffffffffffffffff811115611700576116ff610f98565b5b61170a82546113bb565b611715828285611655565b5f60209050601f831160018114611746575f8415611734578287015190505b61173e85826116c3565b8655506117a5565b601f19841661175486611541565b5f5b8281101561177b57848901518255600182019150602085019450602081019050611756565b868310156117985784890151611794601f8916826116a7565b8355505b6001600288020188555050505b505050505050565b5f6080820190508181035f8301526117c581876112c4565b90506117d46020830186611140565b6117e1604083018561130b565b6117ee6060830184611140565b95945050505050565b7f496e76616c6964207461736b20494400000000000000000000000000000000005f82015250565b5f61182b600f836112b4565b9150611836826117f7565b602082019050919050565b5f6020820190508181035f8301526118588161181f565b9050919050565b5f61186982610d39565b915061187483610d39565b925082820390508181111561188c5761188b6114e1565b5b92915050565b7f4e487b71000000000000000000000000000000000000000000000000000000005f52603260045260245ffd5b5f6118c982610d39565b91507fffffffffffffffffffffffffffffffffffffffffffffffffffffffffffffffff82036118fb576118fa6114e1565b5b600182019050919050565b5f6040820190506119195f8301856112fc565b6119266020830184611140565b939250505056fea2646970667358221220f08b1d63bf52236a92195bfd45d86381e015735a6693d26d4ab0ac576a3d66e864736f6c63430008150033",
  "immutableReferences": {},
  "source": "// SPDX-License-Identifier: MIT\npragma solidity ^0.8.21;\n\ncontract TaskManager {\n    struct Task {\n        uint256 id;\n        string title;\n        uint256 categoryId;\n        bool completed;\n        uint256 createdAt;\n        uint256 updatedAt;\n        address owner;\n    }\n\n    Task[] public tasks;\n    uint256 public taskCount;\n\n    event TaskCreated(uint256 indexed id, string title, uint256 categoryId, address owner, uint256 timestamp);\n    event TaskToggled(uint256 indexed id, bool completed, uint256 timestamp);\n\n    constructor() {\n        taskCount = 0;\n    }\n\n    function createTask(string memory _title, uint256 _categoryId) public returns (uint256) {\n        require(bytes(_title).length > 0, \"Title cannot be empty\");\n        require(_categoryId > 0, \"Category ID must be greater than 0\");\n\n        uint256 currentTime = block.timestamp;\n        uint256 newTaskId = taskCount + 1;\n\n        Task memory newTask = Task({\n            id: newTaskId,\n            title: _title,\n            categoryId: _categoryId,\n            completed: false,\n            createdAt: currentTime,\n            updatedAt: currentTime,\n            owner: msg.sender\n        });\n\n        tasks.push(newTask);\n        taskCount = newTaskId;\n\n        emit TaskCreated(newTaskId, _title, _categoryId, msg.sender, currentTime);\n        return newTaskId;\n    }\n\n    function toggleComplete(uint256 _id, bool _completed) public {\n        require(_id > 0 && _id <= taskCount, \"Invalid task ID\");\n        \n        uint256 taskIndex = _id - 1;\n        tasks[taskIndex].completed = _completed;\n        tasks[taskIndex].updatedAt = block.timestamp;\n\n        emit TaskToggled(_id, _completed, block.timestamp);\n    }\n\n    function completeTask(uint256 _id) public {\n        require(_id > 0 && _id <= taskCount, \"Invalid task ID\");\n        \n        uint256 taskIndex = _id - 1;\n        tasks[taskIndex].completed = true;\n        tasks[taskIndex].updatedAt = block.timestamp;\n\n        emit TaskToggled(_id, true, block.timestamp);\n    }\n\n    function getTasks() public view returns (Task[] memory) {\n        return tasks;\n    }\n\n    function getTask(uint256 _id) public view returns (Task memory) {\n        require(_id > 0 && _id <= taskCount, \"Invalid task ID\");\n        return tasks[_id - 1];\n    }\n\n    function getTasksByCategory(uint256 _categoryId) public view returns (Task[] memory) {\n        uint256 count = 0;\n        \n        // Count tasks in category\n        for (uint256 i = 0; i < tasks.length; i++) {\n            if (tasks[i].categoryId == _categoryId) {\n                count++;\n            }\n        }\n\n        // Create array with correct size\n        Task[] memory categoryTasks = new Task[](count);\n        uint256 index = 0;\n        \n        for (uint256 i = 0; i < tasks.length; i++) {\n            if (tasks[i].categoryId == _categoryId) {\n                categoryTasks[index] = tasks[i];\n                index++;\n            }\n        }\n\n        return categoryTasks;\n    }\n\n    function getTaskCount() public view returns (uint256) {\n        return taskCount;\n    }\n}\n",
  "sourcePath": "C:\\Users\\ACER\\Documents\\Blockchain-study\\small-app\\blockchain-contract\\contracts\\TaskManager.sol",
  "compiler": {
    "name": "solc",
    "version": "0.8.21+commit.d9974bed.Emscripten.clang"
  },
  "schemaVersion": "3.4.16",
  "updatedAt": "2025-08-12T09:06:11.520Z",
  "networkType": "ethereum",
  "devdoc": {
    "kind": "dev",
    "methods": {},
    "version": 1
  },
  "userdoc": {
    "kind": "user",
    "methods": {},
    "version": 1
  }
}